:03000000020800F3
:0C080000787FE4F6D8FD75811E020847E1
:0E09A4005246494420434152442049443A00FF
:0409B20002180080A7
:070928001209807F057E002B
:10092F00E4FDFCC3ED9FEC9E5015E4FBFA0BBB00FE
:0F093F00010ABA04F8BBFBF50DBD00010C80E402
:01094E002286
:100980008FA0D292C290C2917F017E0012092FC225
:020990009222B1
:100992008FA0D292D290C2917F017E0012092FC203
:0209A20092229F
:0608FD008B1A8A1B891C06
:10090300E4F51DF51EAB1AAA1BA91C851E82851DC5
:10091300831208D0FF600D120992051EE51E70E5D3
:04092300051D80E14D
:0109270022AD
:10096A007F381209287F0F1209287F801209807F99
:06097A00057E0002092FBA
:10094F00E4FFEFC3940C74809480500E3098FD74C4
:0A095F000A2FF8A699C2980F80E84D
:01096900226B
:10088C00758920758DFD759850D28E12096A7F81FD
:10089C001209807BFF7A0979A41208FD7FC87E00BB
:1008AC0012092F12094F7FC1120980900000AF82EC
:1008BC00740A2FF8E6FF120992A3E582640C4583B3
:0408CC0070EC80DF6D
:10080C0002088CE493A3F8E493A34003F68001F26E
:10081C0008DFF48029E493A3F85407240CC8C333ED
:10082C00C4540F4420C8834004F456800146F6DFBC
:10083C00E4800B01020408102040809009B2E47E91
:10084C00019360BCA3FF543F30E509541FFEE493B1
:10085C00A360010ECF54C025E060A840B8E493A378
:10086C00FAE493A3F8E493A3C8C582C8CAC583CAA3
:10087C00F0A3C8C582C8CAC583CADFE9DEE780BE5B
:0109B6000040
:1008D000BB010CE58229F582E5833AF583E02250DD
:1008E00006E92582F8E622BBFE06E92582F8E22227
:0D08F000E58229F582E5833AF583E4932241
:00000001FF
